{
  "_format": "hh-sol-artifact-1",
  "contractName": "callFallback",
  "sourceName": "contracts/ERC20.sol",
  "abi": [
    {
      "inputs": [
        {
          "internalType": "address",
          "name": "tokenContract",
          "type": "address"
        }
      ],
      "name": "calFalback",
      "outputs": [
        {
          "internalType": "bool",
          "name": "success",
          "type": "bool"
        }
      ],
      "stateMutability": "payable",
      "type": "function"
    },
    {
      "inputs": [
        {
          "internalType": "address",
          "name": "tokenContract",
          "type": "address"
        },
        {
          "internalType": "address",
          "name": "_owner",
          "type": "address"
        },
        {
          "internalType": "uint256",
          "name": "_qty",
          "type": "uint256"
        }
      ],
      "name": "setPrice",
      "outputs": [
        {
          "internalType": "bool",
          "name": "success",
          "type": "bool"
        },
        {
          "internalType": "bytes",
          "name": "data",
          "type": "bytes"
        }
      ],
      "stateMutability": "nonpayable",
      "type": "function"
    }
  ],
  "bytecode": "0x608060405234801561001057600080fd5b50610686806100206000396000f3fe6080604052600436106100295760003560e01c8063792eb7911461002e5780639b916b571461006c575b600080fd5b34801561003a57600080fd5b506100556004803603810190610050919061034c565b61009c565b6040516100639291906104f3565b60405180910390f35b61008660048036038101906100819190610323565b6101ac565b60405161009391906104d8565b60405180910390f35b60006060600084846040516024016100b59291906104af565b6040516020818303038152906040527ee4768b000000000000000000000000000000000000000000000000000000007bffffffffffffffffffffffffffffffffffffffffffffffffffffffff19166020820180517bffffffffffffffffffffffffffffffffffffffffffffffffffffffff838183161783525050505090508573ffffffffffffffffffffffffffffffffffffffff16816040516101589190610498565b6000604051808303816000865af19150503d8060008114610195576040519150601f19603f3d011682016040523d82523d6000602084013e61019a565b606091505b50809350819450505050935093915050565b6000670de0b6b3a76400003410156101f9576040517f08c379a00000000000000000000000000000000000000000000000000000000081526004016101f090610523565b60405180910390fd5b8173ffffffffffffffffffffffffffffffffffffffff1634346040516024016102229190610543565b6040516020818303038152906040527f3610724e000000000000000000000000000000000000000000000000000000007bffffffffffffffffffffffffffffffffffffffffffffffffffffffff19166020820180517bffffffffffffffffffffffffffffffffffffffffffffffffffffffff83818316178352505050506040516102ac9190610498565b60006040518083038185875af1925050503d80600081146102e9576040519150601f19603f3d011682016040523d82523d6000602084013e6102ee565b606091505b505080915050919050565b60008135905061030881610622565b92915050565b60008135905061031d81610639565b92915050565b60006020828403121561033557600080fd5b6000610343848285016102f9565b91505092915050565b60008060006060848603121561036157600080fd5b600061036f868287016102f9565b9350506020610380868287016102f9565b92505060406103918682870161030e565b9150509250925092565b6103a481610596565b82525050565b6103b3816105a8565b82525050565b60006103c48261055e565b6103ce8185610569565b93506103de8185602086016105de565b6103e781610611565b840191505092915050565b60006103fd8261055e565b610407818561057a565b93506104178185602086016105de565b80840191505092915050565b6000610430602c83610585565b91507f4d696e696d756d20616d6f756e742073686f756c64206265206772656174657260008301527f207468616e2031206568657200000000000000000000000000000000000000006020830152604082019050919050565b610492816105d4565b82525050565b60006104a482846103f2565b915081905092915050565b60006040820190506104c4600083018561039b565b6104d16020830184610489565b9392505050565b60006020820190506104ed60008301846103aa565b92915050565b600060408201905061050860008301856103aa565b818103602083015261051a81846103b9565b90509392505050565b6000602082019050818103600083015261053c81610423565b9050919050565b60006020820190506105586000830184610489565b92915050565b600081519050919050565b600082825260208201905092915050565b600081905092915050565b600082825260208201905092915050565b60006105a1826105b4565b9050919050565b60008115159050919050565b600073ffffffffffffffffffffffffffffffffffffffff82169050919050565b6000819050919050565b60005b838110156105fc5780820151818401526020810190506105e1565b8381111561060b576000848401525b50505050565b6000601f19601f8301169050919050565b61062b81610596565b811461063657600080fd5b50565b610642816105d4565b811461064d57600080fd5b5056fea264697066735822122018657618256a3050d2533089f2443adb4855af144f6e3b0ed557d2198ece0d1d64736f6c63430008000033",
  "linkReferences": {},
  "deployedLinkReferences": {}
}