{
  "_format": "hh-sol-artifact-1",
  "contractName": "ERC20",
  "sourceName": "contracts/ERC20.sol",
  "abi": [
    {
      "inputs": [],
      "stateMutability": "nonpayable",
      "type": "constructor"
    },
    {
      "stateMutability": "payable",
      "type": "fallback"
    },
    {
      "inputs": [],
      "name": "_name",
      "outputs": [
        {
          "internalType": "string",
          "name": "",
          "type": "string"
        }
      ],
      "stateMutability": "view",
      "type": "function"
    },
    {
      "inputs": [],
      "name": "_owner",
      "outputs": [
        {
          "internalType": "address",
          "name": "",
          "type": "address"
        }
      ],
      "stateMutability": "view",
      "type": "function"
    },
    {
      "inputs": [],
      "name": "_symbol",
      "outputs": [
        {
          "internalType": "string",
          "name": "",
          "type": "string"
        }
      ],
      "stateMutability": "view",
      "type": "function"
    },
    {
      "inputs": [
        {
          "internalType": "uint256",
          "name": "amount",
          "type": "uint256"
        }
      ],
      "name": "buyTokens",
      "outputs": [],
      "stateMutability": "payable",
      "type": "function"
    },
    {
      "inputs": [],
      "name": "contractBalance",
      "outputs": [
        {
          "internalType": "uint256",
          "name": "",
          "type": "uint256"
        }
      ],
      "stateMutability": "view",
      "type": "function"
    },
    {
      "inputs": [],
      "name": "getPriceToken",
      "outputs": [
        {
          "internalType": "uint256",
          "name": "",
          "type": "uint256"
        }
      ],
      "stateMutability": "view",
      "type": "function"
    },
    {
      "inputs": [],
      "name": "getTokenBalances",
      "outputs": [
        {
          "internalType": "uint256",
          "name": "",
          "type": "uint256"
        }
      ],
      "stateMutability": "view",
      "type": "function"
    },
    {
      "inputs": [
        {
          "internalType": "uint256",
          "name": "qty",
          "type": "uint256"
        }
      ],
      "name": "setPrice",
      "outputs": [
        {
          "internalType": "uint256",
          "name": "",
          "type": "uint256"
        }
      ],
      "stateMutability": "nonpayable",
      "type": "function"
    }
  ],
  "bytecode": "0x608060405268056bc75e2d631000006007553480156200001e57600080fd5b506040518060400160405280600781526020017f4a4b20434f494e00000000000000000000000000000000000000000000000000815250600190805190602001906200006c929190620001ac565b506040518060400160405280600381526020017f4a4b43000000000000000000000000000000000000000000000000000000000081525060029080519060200190620000ba929190620001ac565b5033600360006101000a81548173ffffffffffffffffffffffffffffffffffffffff021916908373ffffffffffffffffffffffffffffffffffffffff16021790555060126005819055506ec097ce7bc90715b34b9f1000000000600681905550600554600a6200012b9190620002b7565b6064620001399190620003f4565b600481905550600454600080600360009054906101000a900473ffffffffffffffffffffffffffffffffffffffff1673ffffffffffffffffffffffffffffffffffffffff1673ffffffffffffffffffffffffffffffffffffffff1681526020019081526020016000208190555062000500565b828054620001ba906200045f565b90600052602060002090601f016020900481019282620001de57600085556200022a565b82601f10620001f957805160ff19168380011785556200022a565b828001600101855582156200022a579182015b82811115620002295782518255916020019190600101906200020c565b5b5090506200023991906200023d565b5090565b5b80821115620002585760008160009055506001016200023e565b5090565b6000808291508390505b6001851115620002ae5780860481111562000286576200028562000495565b5b6001851615620002965780820291505b8081029050620002a685620004f3565b945062000266565b94509492505050565b6000620002c48262000455565b9150620002d18362000455565b9250620003007fffffffffffffffffffffffffffffffffffffffffffffffffffffffffffffffff848462000308565b905092915050565b6000826200031a5760019050620003ed565b816200032a5760009050620003ed565b81600181146200034357600281146200034e5762000384565b6001915050620003ed565b60ff84111562000363576200036262000495565b5b8360020a9150848211156200037d576200037c62000495565b5b50620003ed565b5060208310610133831016604e8410600b8410161715620003be5782820a905083811115620003b857620003b762000495565b5b620003ed565b620003cd84848460016200025c565b92509050818404811115620003e757620003e662000495565b5b81810290505b9392505050565b6000620004018262000455565b91506200040e8362000455565b9250817fffffffffffffffffffffffffffffffffffffffffffffffffffffffffffffffff04831182151516156200044a576200044962000495565b5b828202905092915050565b6000819050919050565b600060028204905060018216806200047857607f821691505b602082108114156200048f576200048e620004c4565b5b50919050565b7f4e487b7100000000000000000000000000000000000000000000000000000000600052601160045260246000fd5b7f4e487b7100000000000000000000000000000000000000000000000000000000600052602260045260246000fd5b60008160011c9050919050565b610a3b80620005106000396000f3fe60806040526004361061007f5760003560e01c8063a1dc90311161004e578063a1dc90311461013a578063b09f126614610165578063b2bdfa7b14610190578063d28d8852146101bb57610080565b80633610724e1461008b57806372f0424f146100a75780638b7afe2e146100d257806391b7f5ed146100fd57610080565b5b610089346101e6565b005b6100a560048036038101906100a09190610646565b6101e6565b005b3480156100b357600080fd5b506100bc6103f4565b6040516100c991906107c3565b60405180910390f35b3480156100de57600080fd5b506100e76103fe565b6040516100f491906107c3565b60405180910390f35b34801561010957600080fd5b50610124600480360381019061011f9190610646565b610406565b60405161013191906107c3565b60405180910390f35b34801561014657600080fd5b5061014f6104a9565b60405161015c91906107c3565b60405180910390f35b34801561017157600080fd5b5061017a6104ef565b6040516101879190610761565b60405180910390f35b34801561019c57600080fd5b506101a561057d565b6040516101b29190610746565b60405180910390f35b3480156101c757600080fd5b506101d06105a3565b6040516101dd9190610761565b60405180910390f35b600754816101f49190610850565b60068190555060003390508073ffffffffffffffffffffffffffffffffffffffff16600360009054906101000a900473ffffffffffffffffffffffffffffffffffffffff1673ffffffffffffffffffffffffffffffffffffffff161415610290576040517f08c379a000000000000000000000000000000000000000000000000000000000815260040161028790610783565b60405180910390fd5b6006546000808373ffffffffffffffffffffffffffffffffffffffff1673ffffffffffffffffffffffffffffffffffffffff168152602001908152602001600020546102dc91906107fa565b6000808373ffffffffffffffffffffffffffffffffffffffff1673ffffffffffffffffffffffffffffffffffffffff16815260200190815260200160002081905550600654600080600360009054906101000a900473ffffffffffffffffffffffffffffffffffffffff1673ffffffffffffffffffffffffffffffffffffffff1673ffffffffffffffffffffffffffffffffffffffff1681526020019081526020016000205461038c91906108aa565b600080600360009054906101000a900473ffffffffffffffffffffffffffffffffffffffff1673ffffffffffffffffffffffffffffffffffffffff1673ffffffffffffffffffffffffffffffffffffffff168152602001908152602001600020819055505050565b6000600654905090565b600047905090565b60003373ffffffffffffffffffffffffffffffffffffffff16600360009054906101000a900473ffffffffffffffffffffffffffffffffffffffff1673ffffffffffffffffffffffffffffffffffffffff1614610498576040517f08c379a000000000000000000000000000000000000000000000000000000000815260040161048f906107a3565b60405180910390fd5b816007819055506007549050919050565b60008060003373ffffffffffffffffffffffffffffffffffffffff1673ffffffffffffffffffffffffffffffffffffffff16815260200190815260200160002054905090565b600280546104fc9061094d565b80601f01602080910402602001604051908101604052809291908181526020018280546105289061094d565b80156105755780601f1061054a57610100808354040283529160200191610575565b820191906000526020600020905b81548152906001019060200180831161055857829003601f168201915b505050505081565b600360009054906101000a900473ffffffffffffffffffffffffffffffffffffffff1681565b600180546105b09061094d565b80601f01602080910402602001604051908101604052809291908181526020018280546105dc9061094d565b80156106295780601f106105fe57610100808354040283529160200191610629565b820191906000526020600020905b81548152906001019060200180831161060c57829003601f168201915b505050505081565b600081359050610640816109ee565b92915050565b60006020828403121561065857600080fd5b600061066684828501610631565b91505092915050565b610678816108de565b82525050565b6000610689826107de565b61069381856107e9565b93506106a381856020860161091a565b6106ac816109dd565b840191505092915050565b60006106c46016836107e9565b91507f6f776e65722063616e206e6f74206265206275796572000000000000000000006000830152602082019050919050565b60006107046018836107e9565b91507f6f6e6c79206f776e65722063616e2073657420707269636500000000000000006000830152602082019050919050565b61074081610910565b82525050565b600060208201905061075b600083018461066f565b92915050565b6000602082019050818103600083015261077b818461067e565b905092915050565b6000602082019050818103600083015261079c816106b7565b9050919050565b600060208201905081810360008301526107bc816106f7565b9050919050565b60006020820190506107d86000830184610737565b92915050565b600081519050919050565b600082825260208201905092915050565b600061080582610910565b915061081083610910565b9250827fffffffffffffffffffffffffffffffffffffffffffffffffffffffffffffffff038211156108455761084461097f565b5b828201905092915050565b600061085b82610910565b915061086683610910565b9250817fffffffffffffffffffffffffffffffffffffffffffffffffffffffffffffffff048311821515161561089f5761089e61097f565b5b828202905092915050565b60006108b582610910565b91506108c083610910565b9250828210156108d3576108d261097f565b5b828203905092915050565b60006108e9826108f0565b9050919050565b600073ffffffffffffffffffffffffffffffffffffffff82169050919050565b6000819050919050565b60005b8381101561093857808201518184015260208101905061091d565b83811115610947576000848401525b50505050565b6000600282049050600182168061096557607f821691505b60208210811415610979576109786109ae565b5b50919050565b7f4e487b7100000000000000000000000000000000000000000000000000000000600052601160045260246000fd5b7f4e487b7100000000000000000000000000000000000000000000000000000000600052602260045260246000fd5b6000601f19601f8301169050919050565b6109f781610910565b8114610a0257600080fd5b5056fea26469706673582212203b140ff5c775ee567b7e99dbe65fab28837051b2cfdeeadc36630f2e9b3b9d1864736f6c63430008000033",
  "linkReferences": {},
  "deployedLinkReferences": {}
}