{
  "_format": "hh-sol-artifact-1",
  "contractName": "ERC20",
  "sourceName": "contracts/ERC20.sol",
  "abi": [
    {
      "inputs": [],
      "stateMutability": "nonpayable",
      "type": "constructor"
    },
    {
      "stateMutability": "payable",
      "type": "fallback"
    },
    {
      "inputs": [
        {
          "internalType": "uint256",
          "name": "_amount",
          "type": "uint256"
        }
      ],
      "name": "_mint",
      "outputs": [
        {
          "internalType": "uint256",
          "name": "",
          "type": "uint256"
        }
      ],
      "stateMutability": "nonpayable",
      "type": "function"
    },
    {
      "inputs": [],
      "name": "_name",
      "outputs": [
        {
          "internalType": "string",
          "name": "",
          "type": "string"
        }
      ],
      "stateMutability": "view",
      "type": "function"
    },
    {
      "inputs": [],
      "name": "_owner",
      "outputs": [
        {
          "internalType": "address",
          "name": "",
          "type": "address"
        }
      ],
      "stateMutability": "view",
      "type": "function"
    },
    {
      "inputs": [],
      "name": "_symbol",
      "outputs": [
        {
          "internalType": "string",
          "name": "",
          "type": "string"
        }
      ],
      "stateMutability": "view",
      "type": "function"
    },
    {
      "inputs": [
        {
          "internalType": "uint256",
          "name": "amount",
          "type": "uint256"
        }
      ],
      "name": "buyTokens",
      "outputs": [],
      "stateMutability": "payable",
      "type": "function"
    },
    {
      "inputs": [],
      "name": "contractBalance",
      "outputs": [
        {
          "internalType": "uint256",
          "name": "",
          "type": "uint256"
        }
      ],
      "stateMutability": "view",
      "type": "function"
    },
    {
      "inputs": [],
      "name": "getPriceToken",
      "outputs": [
        {
          "internalType": "uint256",
          "name": "",
          "type": "uint256"
        }
      ],
      "stateMutability": "view",
      "type": "function"
    },
    {
      "inputs": [],
      "name": "getTokenBalances",
      "outputs": [
        {
          "internalType": "uint256",
          "name": "",
          "type": "uint256"
        }
      ],
      "stateMutability": "view",
      "type": "function"
    },
    {
      "inputs": [
        {
          "internalType": "uint256",
          "name": "qty",
          "type": "uint256"
        }
      ],
      "name": "setPrice",
      "outputs": [
        {
          "internalType": "uint256",
          "name": "",
          "type": "uint256"
        }
      ],
      "stateMutability": "nonpayable",
      "type": "function"
    },
    {
      "inputs": [
        {
          "internalType": "address",
          "name": "recipient",
          "type": "address"
        },
        {
          "internalType": "uint256",
          "name": "amount",
          "type": "uint256"
        }
      ],
      "name": "transfer",
      "outputs": [
        {
          "internalType": "bool",
          "name": "",
          "type": "bool"
        }
      ],
      "stateMutability": "nonpayable",
      "type": "function"
    },
    {
      "stateMutability": "payable",
      "type": "receive"
    }
  ],
  "bytecode": "0x608060405268056bc75e2d631000006007553480156200001e57600080fd5b506040518060400160405280600781526020017f4a4b20434f494e00000000000000000000000000000000000000000000000000815250600190805190602001906200006c929190620001f2565b506040518060400160405280600381526020017f4a4b43000000000000000000000000000000000000000000000000000000000081525060029080519060200190620000ba929190620001f2565b5033600360006101000a81548173ffffffffffffffffffffffffffffffffffffffff021916908373ffffffffffffffffffffffffffffffffffffffff16021790555060126005819055506ec097ce7bc90715b34b9f1000000000600681905550600554600a6200012b91906200035a565b6107d06200013a919062000497565b600881905550600554600a6200015191906200035a565b60c86200015f919062000497565b600981905550600954600481905550600954600080600360009054906101000a900473ffffffffffffffffffffffffffffffffffffffff1673ffffffffffffffffffffffffffffffffffffffff1673ffffffffffffffffffffffffffffffffffffffff1681526020019081526020016000208190555062278d0042620001e69190620002a2565b600a81905550620005a3565b828054620002009062000502565b90600052602060002090601f01602090048101928262000224576000855562000270565b82601f106200023f57805160ff191683800117855562000270565b8280016001018555821562000270579182015b828111156200026f57825182559160200191906001019062000252565b5b5090506200027f919062000283565b5090565b5b808211156200029e57600081600090555060010162000284565b5090565b6000620002af82620004f8565b9150620002bc83620004f8565b9250827fffffffffffffffffffffffffffffffffffffffffffffffffffffffffffffffff03821115620002f457620002f362000538565b5b828201905092915050565b6000808291508390505b6001851115620003515780860481111562000329576200032862000538565b5b6001851615620003395780820291505b8081029050620003498562000596565b945062000309565b94509492505050565b60006200036782620004f8565b91506200037483620004f8565b9250620003a37fffffffffffffffffffffffffffffffffffffffffffffffffffffffffffffffff8484620003ab565b905092915050565b600082620003bd576001905062000490565b81620003cd576000905062000490565b8160018114620003e65760028114620003f15762000427565b600191505062000490565b60ff84111562000406576200040562000538565b5b8360020a91508482111562000420576200041f62000538565b5b5062000490565b5060208310610133831016604e8410600b8410161715620004615782820a9050838111156200045b576200045a62000538565b5b62000490565b620004708484846001620002ff565b925090508184048111156200048a576200048962000538565b5b81810290505b9392505050565b6000620004a482620004f8565b9150620004b183620004f8565b9250817fffffffffffffffffffffffffffffffffffffffffffffffffffffffffffffffff0483118215151615620004ed57620004ec62000538565b5b828202905092915050565b6000819050919050565b600060028204905060018216806200051b57607f821691505b6020821081141562000532576200053162000567565b5b50919050565b7f4e487b7100000000000000000000000000000000000000000000000000000000600052601160045260246000fd5b7f4e487b7100000000000000000000000000000000000000000000000000000000600052602260045260246000fd5b60008160011c9050919050565b6111f880620005b36000396000f3fe6080604052600436106100955760003560e01c8063a1dc903111610059578063a1dc903114610193578063a9059cbb146101be578063b09f1266146101fb578063b2bdfa7b14610226578063d28d8852146102515761009c565b80632c526196146100a75780633610724e146100e457806372f0424f146101005780638b7afe2e1461012b57806391b7f5ed146101565761009c565b3661009c57005b6100a53461027c565b005b3480156100b357600080fd5b506100ce60048036038101906100c99190610b50565b61048a565b6040516100db9190610f5d565b60405180910390f35b6100fe60048036038101906100f99190610b50565b61027c565b005b34801561010c57600080fd5b506101156105e5565b6040516101229190610f5d565b60405180910390f35b34801561013757600080fd5b506101406105ef565b60405161014d9190610f5d565b60405180910390f35b34801561016257600080fd5b5061017d60048036038101906101789190610b50565b6105f7565b60405161018a9190610f5d565b60405180910390f35b34801561019f57600080fd5b506101a861069a565b6040516101b59190610f5d565b60405180910390f35b3480156101ca57600080fd5b506101e560048036038101906101e09190610b14565b6106e0565b6040516101f29190610e20565b60405180910390f35b34801561020757600080fd5b506102106109a8565b60405161021d9190610e3b565b60405180910390f35b34801561023257600080fd5b5061023b610a36565b6040516102489190610e05565b60405180910390f35b34801561025d57600080fd5b50610266610a5c565b6040516102739190610e3b565b60405180910390f35b6007548161028a9190610fea565b60068190555060003390508073ffffffffffffffffffffffffffffffffffffffff16600360009054906101000a900473ffffffffffffffffffffffffffffffffffffffff1673ffffffffffffffffffffffffffffffffffffffff161415610326576040517f08c379a000000000000000000000000000000000000000000000000000000000815260040161031d90610e5d565b60405180910390fd5b6006546000808373ffffffffffffffffffffffffffffffffffffffff1673ffffffffffffffffffffffffffffffffffffffff168152602001908152602001600020546103729190610f94565b6000808373ffffffffffffffffffffffffffffffffffffffff1673ffffffffffffffffffffffffffffffffffffffff16815260200190815260200160002081905550600654600080600360009054906101000a900473ffffffffffffffffffffffffffffffffffffffff1673ffffffffffffffffffffffffffffffffffffffff1673ffffffffffffffffffffffffffffffffffffffff168152602001908152602001600020546104229190611044565b600080600360009054906101000a900473ffffffffffffffffffffffffffffffffffffffff1673ffffffffffffffffffffffffffffffffffffffff1673ffffffffffffffffffffffffffffffffffffffff168152602001908152602001600020819055505050565b6000600360009054906101000a900473ffffffffffffffffffffffffffffffffffffffff1673ffffffffffffffffffffffffffffffffffffffff163373ffffffffffffffffffffffffffffffffffffffff161461051c576040517f08c379a000000000000000000000000000000000000000000000000000000000815260040161051390610efd565b60405180910390fd5b6008548260045461052d9190610f94565b1061056d576040517f08c379a000000000000000000000000000000000000000000000000000000000815260040161056490610e9d565b60405180910390fd5b816000803373ffffffffffffffffffffffffffffffffffffffff1673ffffffffffffffffffffffffffffffffffffffff16815260200190815260200160002060008282546105bb9190610f94565b9250508190555081600460008282546105d49190610f94565b925050819055506004549050919050565b6000600654905090565b600047905090565b60003373ffffffffffffffffffffffffffffffffffffffff16600360009054906101000a900473ffffffffffffffffffffffffffffffffffffffff1673ffffffffffffffffffffffffffffffffffffffff1614610689576040517f08c379a000000000000000000000000000000000000000000000000000000000815260040161068090610f3d565b60405180910390fd5b816007819055506007549050919050565b60008060003373ffffffffffffffffffffffffffffffffffffffff1673ffffffffffffffffffffffffffffffffffffffff16815260200190815260200160002054905090565b60008073ffffffffffffffffffffffffffffffffffffffff163373ffffffffffffffffffffffffffffffffffffffff161415610751576040517f08c379a000000000000000000000000000000000000000000000000000000000815260040161074890610ebd565b60405180910390fd5b600073ffffffffffffffffffffffffffffffffffffffff168373ffffffffffffffffffffffffffffffffffffffff1614156107c1576040517f08c379a00000000000000000000000000000000000000000000000000000000081526004016107b890610f1d565b60405180910390fd5b816000803373ffffffffffffffffffffffffffffffffffffffff1673ffffffffffffffffffffffffffffffffffffffff1681526020019081526020016000205411610841576040517f08c379a000000000000000000000000000000000000000000000000000000000815260040161083890610edd565b60405180910390fd5b600a54421015610886576040517f08c379a000000000000000000000000000000000000000000000000000000000815260040161087d90610e7d565b60405180910390fd5b816000803373ffffffffffffffffffffffffffffffffffffffff1673ffffffffffffffffffffffffffffffffffffffff168152602001908152602001600020546108d09190611044565b6000803373ffffffffffffffffffffffffffffffffffffffff1673ffffffffffffffffffffffffffffffffffffffff16815260200190815260200160002081905550816000808573ffffffffffffffffffffffffffffffffffffffff1673ffffffffffffffffffffffffffffffffffffffff1681526020019081526020016000205461095c9190610f94565b6000808573ffffffffffffffffffffffffffffffffffffffff1673ffffffffffffffffffffffffffffffffffffffff168152602001908152602001600020819055506001905092915050565b600280546109b5906110f3565b80601f01602080910402602001604051908101604052809291908181526020018280546109e1906110f3565b8015610a2e5780601f10610a0357610100808354040283529160200191610a2e565b820191906000526020600020905b815481529060010190602001808311610a1157829003601f168201915b505050505081565b600360009054906101000a900473ffffffffffffffffffffffffffffffffffffffff1681565b60018054610a69906110f3565b80601f0160208091040260200160405190810160405280929190818152602001828054610a95906110f3565b8015610ae25780601f10610ab757610100808354040283529160200191610ae2565b820191906000526020600020905b815481529060010190602001808311610ac557829003601f168201915b505050505081565b600081359050610af981611194565b92915050565b600081359050610b0e816111ab565b92915050565b60008060408385031215610b2757600080fd5b6000610b3585828601610aea565b9250506020610b4685828601610aff565b9150509250929050565b600060208284031215610b6257600080fd5b6000610b7084828501610aff565b91505092915050565b610b8281611078565b82525050565b610b918161108a565b82525050565b6000610ba282610f78565b610bac8185610f83565b9350610bbc8185602086016110c0565b610bc581611183565b840191505092915050565b6000610bdd601683610f83565b91507f6f776e65722063616e206e6f74206265206275796572000000000000000000006000830152602082019050919050565b6000610c1d602583610f83565b91507f43616e206e6f74207472616e73666572206265666f72652072656c656173652060008301527f74696d65210000000000000000000000000000000000000000000000000000006020830152604082019050919050565b6000610c83601683610f83565b91507f6d696e6974696e67206c696d69742065786365646564000000000000000000006000830152602082019050919050565b6000610cc3601783610f83565b91507f20496e76616c69642053656e64657220416464726573730000000000000000006000830152602082019050919050565b6000610d03601483610f83565b91507f4e6f7420656e666f7567682062616c616e63652e0000000000000000000000006000830152602082019050919050565b6000610d43602083610f83565b91507f6f6e6c79206f776e65722063616e2072756e20746869732066756e6374696f6e6000830152602082019050919050565b6000610d83601983610f83565b91507f20496e76616c69642052656369657665722041646472657373000000000000006000830152602082019050919050565b6000610dc3601883610f83565b91507f6f6e6c79206f776e65722063616e2073657420707269636500000000000000006000830152602082019050919050565b610dff816110b6565b82525050565b6000602082019050610e1a6000830184610b79565b92915050565b6000602082019050610e356000830184610b88565b92915050565b60006020820190508181036000830152610e558184610b97565b905092915050565b60006020820190508181036000830152610e7681610bd0565b9050919050565b60006020820190508181036000830152610e9681610c10565b9050919050565b60006020820190508181036000830152610eb681610c76565b9050919050565b60006020820190508181036000830152610ed681610cb6565b9050919050565b60006020820190508181036000830152610ef681610cf6565b9050919050565b60006020820190508181036000830152610f1681610d36565b9050919050565b60006020820190508181036000830152610f3681610d76565b9050919050565b60006020820190508181036000830152610f5681610db6565b9050919050565b6000602082019050610f726000830184610df6565b92915050565b600081519050919050565b600082825260208201905092915050565b6000610f9f826110b6565b9150610faa836110b6565b9250827fffffffffffffffffffffffffffffffffffffffffffffffffffffffffffffffff03821115610fdf57610fde611125565b5b828201905092915050565b6000610ff5826110b6565b9150611000836110b6565b9250817fffffffffffffffffffffffffffffffffffffffffffffffffffffffffffffffff048311821515161561103957611038611125565b5b828202905092915050565b600061104f826110b6565b915061105a836110b6565b92508282101561106d5761106c611125565b5b828203905092915050565b600061108382611096565b9050919050565b60008115159050919050565b600073ffffffffffffffffffffffffffffffffffffffff82169050919050565b6000819050919050565b60005b838110156110de5780820151818401526020810190506110c3565b838111156110ed576000848401525b50505050565b6000600282049050600182168061110b57607f821691505b6020821081141561111f5761111e611154565b5b50919050565b7f4e487b7100000000000000000000000000000000000000000000000000000000600052601160045260246000fd5b7f4e487b7100000000000000000000000000000000000000000000000000000000600052602260045260246000fd5b6000601f19601f8301169050919050565b61119d81611078565b81146111a857600080fd5b50565b6111b4816110b6565b81146111bf57600080fd5b5056fea26469706673582212201b96622fd9b22580879520f74bac946c785be44eca83a8db7d50cfa11fa6537764736f6c63430008000033",
  "linkReferences": {},
  "deployedLinkReferences": {}
}